{
  "contractName": "EmergencyStop",
  "abi": [
    {
      "constant": true,
      "inputs": [],
      "name": "ownerESC",
      "outputs": [
        {
          "name": "",
          "type": "address"
        }
      ],
      "payable": false,
      "stateMutability": "view",
      "type": "function"
    },
    {
      "constant": true,
      "inputs": [],
      "name": "emergencyStopSwitch",
      "outputs": [
        {
          "name": "",
          "type": "bool"
        }
      ],
      "payable": false,
      "stateMutability": "view",
      "type": "function"
    },
    {
      "inputs": [],
      "payable": false,
      "stateMutability": "nonpayable",
      "type": "constructor"
    },
    {
      "anonymous": false,
      "inputs": [
        {
          "indexed": false,
          "name": "_emergencySwitchValue",
          "type": "bool"
        }
      ],
      "name": "LogEmergencyStopSwitch",
      "type": "event"
    },
    {
      "constant": false,
      "inputs": [
        {
          "name": "emergencySwitchValue",
          "type": "bool"
        }
      ],
      "name": "emergencyStopFunction",
      "outputs": [
        {
          "name": "_emergencyStopSwitch",
          "type": "bool"
        }
      ],
      "payable": false,
      "stateMutability": "nonpayable",
      "type": "function"
    }
  ],
  "bytecode": "0x608060405234801561001057600080fd5b50336000806101000a81548173ffffffffffffffffffffffffffffffffffffffff021916908373ffffffffffffffffffffffffffffffffffffffff1602179055506102a4806100606000396000f3fe608060405234801561001057600080fd5b50600436106100415760003560e01c80630e29975e146100465780637c612f2a14610090578063e621a387146100b2575b600080fd5b61004e6100fa565b604051808273ffffffffffffffffffffffffffffffffffffffff1673ffffffffffffffffffffffffffffffffffffffff16815260200191505060405180910390f35b61009861011f565b604051808215151515815260200191505060405180910390f35b6100e0600480360360208110156100c857600080fd5b81019080803515159060200190929190505050610132565b604051808215151515815260200191505060405180910390f35b6000809054906101000a900473ffffffffffffffffffffffffffffffffffffffff1681565b600060149054906101000a900460ff1681565b60003373ffffffffffffffffffffffffffffffffffffffff166000809054906101000a900473ffffffffffffffffffffffffffffffffffffffff1673ffffffffffffffffffffffffffffffffffffffff16146101d9576040517f08c379a00000000000000000000000000000000000000000000000000000000081526004018080602001828103825260338152602001806102466033913960400191505060405180910390fd5b7f7813715e6276e764527fb3fc9d9ff59f3239bfbd4c4a3a6fb3a8e54da660f0ad82604051808215151515815260200191505060405180910390a181600060146101000a81548160ff021916908315150217905550600060149054906101000a900460ff16905091905056fe4163636573732064656e6965642e20416363657373207265737472696374656420746f20636f6e7472616374206f776e65722ea165627a7a723058204de7ed6a9e3262af522ff5818d6debfe62ebb86499a890a13de291637e7651fd0029",
  "source": "/// @title EmergencyStop: A circuit breaker for temporarily disabling contract functions\n/// @author John McCrae\n\n/// @dev This contract requires solidity compiler version 0.5 or higher\npragma solidity ^0.5.0;\n\n/// @dev EmergencyStop: A contract that implements the circuit breaker design pattern\ncontract EmergencyStop {\n    \n    /// @param ownerESC A public payable address data type\n    address payable public ownerESC;\n    \n    /// @param emergencyStopSwitch A public boolean data type to keep track of emergencyStopSwitch (circuit breaker flag)\n    bool public emergencyStopSwitch;\n   \n    /// @param _emergencySwitchValue A boolean data type to keep track of changes to emergencyStopSwitch\n    event LogEmergencyStopSwitch(bool _emergencySwitchValue);\n   \n    /// @dev verifyOwnerESC A modifier requiring the message sender address is equal to the owner address\n    modifier verifyOwnerESC () {\n        require(ownerESC == msg.sender, \"Access denied. Access restricted to contract owner.\");\n        _;\n    }\n   \n    /// @dev verifyEmergencyStopValue A modifier requiring emergencyStopSwitch (circuit breaker flag) to be false\n    modifier verifyEmergencyStopValue () {\n        require(emergencyStopSwitch == false, \"Access denied. This contract has been temporarily disabled.\");\n        _;\n    }\n\n    /// @dev Declare constructor. Set ownerESC to be the contract creator.\n    constructor () public {\n        ownerESC = msg.sender;\n    }\n\n    /// @dev emergencyStopFunction() A function that allows setting emergencyStopSwitch (circuit breaker flag) to true or false\n    /// @param emergencySwitchValue A boolean data type for changing the state of emergencyStopSwitch (circuit breaker flag)\n    /// @return A boolean data type returning the new value of emergencyStopSwitch (circuit breaker flag)\n    function emergencyStopFunction (bool emergencySwitchValue)\n    public\n    verifyOwnerESC\n    returns(bool _emergencyStopSwitch)\n    {\n        emit LogEmergencyStopSwitch(emergencySwitchValue);\n        emergencyStopSwitch = emergencySwitchValue;\n        return emergencyStopSwitch;\n    }\n    \n}",
  "sourcePath": "/home/john/git/Project/contracts/EmergencyStop.sol",
  "compiler": {
    "name": "solc",
    "version": "0.5.8+commit.23d335f2.Emscripten.clang"
  },
  "schemaVersion": "3.0.11",
  "updatedAt": "2019-07-28T22:51:50.877Z",
  "devdoc": {
    "details": "EmergencyStop: A contract that implements the circuit breaker design pattern",
    "methods": {
      "constructor": {
        "details": "Declare constructor. Set ownerESC to be the contract creator."
      },
      "emergencyStopFunction(bool)": {
        "details": "emergencyStopFunction() A function that allows setting emergencyStopSwitch (circuit breaker flag) to true or false",
        "params": {
          "emergencySwitchValue": "A boolean data type for changing the state of emergencyStopSwitch (circuit breaker flag)"
        },
        "return": "A boolean data type returning the new value of emergencyStopSwitch (circuit breaker flag)"
      }
    }
  },
  "userdoc": {
    "methods": {}
  }
}