{
  "contractName": "Marketplace",
  "abi": [
    {
      "constant": true,
      "inputs": [],
      "name": "productIDGen",
      "outputs": [
        {
          "name": "",
          "type": "uint256"
        }
      ],
      "payable": false,
      "stateMutability": "view",
      "type": "function"
    },
    {
      "constant": true,
      "inputs": [],
      "name": "ownerESC",
      "outputs": [
        {
          "name": "",
          "type": "address"
        }
      ],
      "payable": false,
      "stateMutability": "view",
      "type": "function"
    },
    {
      "constant": true,
      "inputs": [],
      "name": "managerIDGen",
      "outputs": [
        {
          "name": "",
          "type": "uint256"
        }
      ],
      "payable": false,
      "stateMutability": "view",
      "type": "function"
    },
    {
      "constant": true,
      "inputs": [
        {
          "name": "",
          "type": "address"
        }
      ],
      "name": "storeMan",
      "outputs": [
        {
          "name": "managerID",
          "type": "uint256"
        },
        {
          "name": "managerName",
          "type": "string"
        },
        {
          "name": "managerAuth",
          "type": "bool"
        }
      ],
      "payable": false,
      "stateMutability": "view",
      "type": "function"
    },
    {
      "constant": true,
      "inputs": [],
      "name": "ownerMarketplace",
      "outputs": [
        {
          "name": "",
          "type": "address"
        }
      ],
      "payable": false,
      "stateMutability": "view",
      "type": "function"
    },
    {
      "constant": true,
      "inputs": [],
      "name": "emergencyStopSwitch",
      "outputs": [
        {
          "name": "",
          "type": "bool"
        }
      ],
      "payable": false,
      "stateMutability": "view",
      "type": "function"
    },
    {
      "constant": true,
      "inputs": [
        {
          "name": "",
          "type": "uint256"
        }
      ],
      "name": "storeProd",
      "outputs": [
        {
          "name": "productName",
          "type": "string"
        },
        {
          "name": "totalUnits",
          "type": "uint256"
        },
        {
          "name": "unitPrice",
          "type": "uint256"
        },
        {
          "name": "forSale",
          "type": "bool"
        }
      ],
      "payable": false,
      "stateMutability": "view",
      "type": "function"
    },
    {
      "constant": false,
      "inputs": [
        {
          "name": "emergencySwitchValue",
          "type": "bool"
        }
      ],
      "name": "emergencyStopFunction",
      "outputs": [
        {
          "name": "_emergencyStopSwitch",
          "type": "bool"
        }
      ],
      "payable": false,
      "stateMutability": "nonpayable",
      "type": "function"
    },
    {
      "inputs": [],
      "payable": false,
      "stateMutability": "nonpayable",
      "type": "constructor"
    },
    {
      "anonymous": false,
      "inputs": [
        {
          "indexed": false,
          "name": "_readProductID",
          "type": "uint256"
        },
        {
          "indexed": false,
          "name": "_readProductName",
          "type": "string"
        },
        {
          "indexed": false,
          "name": "_readTotalUnits",
          "type": "uint256"
        },
        {
          "indexed": false,
          "name": "_readUnitPrice",
          "type": "uint256"
        },
        {
          "indexed": false,
          "name": "_forSale",
          "type": "bool"
        },
        {
          "indexed": false,
          "name": "_buyersAcc",
          "type": "uint256"
        }
      ],
      "name": "LogStoreProductsRead",
      "type": "event"
    },
    {
      "anonymous": false,
      "inputs": [
        {
          "indexed": false,
          "name": "_buyProductID",
          "type": "uint256"
        },
        {
          "indexed": false,
          "name": "_buyProductName",
          "type": "string"
        },
        {
          "indexed": false,
          "name": "_buyTotalUnits",
          "type": "uint256"
        },
        {
          "indexed": false,
          "name": "_buyUnitPrice",
          "type": "uint256"
        }
      ],
      "name": "LogStoreProductBuy",
      "type": "event"
    },
    {
      "anonymous": false,
      "inputs": [
        {
          "indexed": false,
          "name": "_newProductID",
          "type": "uint256"
        },
        {
          "indexed": false,
          "name": "_newProductName",
          "type": "string"
        },
        {
          "indexed": false,
          "name": "_newTotalUnits",
          "type": "uint256"
        },
        {
          "indexed": false,
          "name": "_newUnitPrice",
          "type": "uint256"
        },
        {
          "indexed": false,
          "name": "_forSale",
          "type": "bool"
        },
        {
          "indexed": false,
          "name": "_buyersAcc",
          "type": "uint256"
        }
      ],
      "name": "LogStoreProductAdded",
      "type": "event"
    },
    {
      "anonymous": false,
      "inputs": [
        {
          "indexed": false,
          "name": "_oldProductID",
          "type": "uint256"
        },
        {
          "indexed": false,
          "name": "_oldProductName",
          "type": "string"
        },
        {
          "indexed": false,
          "name": "_oldTotalUnits",
          "type": "uint256"
        },
        {
          "indexed": false,
          "name": "_oldUnitPrice",
          "type": "uint256"
        },
        {
          "indexed": false,
          "name": "_forSale",
          "type": "bool"
        },
        {
          "indexed": false,
          "name": "_buyersAcc",
          "type": "uint256"
        }
      ],
      "name": "LogStoreProductRemoved",
      "type": "event"
    },
    {
      "anonymous": false,
      "inputs": [
        {
          "indexed": false,
          "name": "_changeProductID",
          "type": "uint256"
        },
        {
          "indexed": false,
          "name": "_changeProductName",
          "type": "string"
        },
        {
          "indexed": false,
          "name": "_changeTotalUnits",
          "type": "uint256"
        },
        {
          "indexed": false,
          "name": "_changeUnitPrice",
          "type": "uint256"
        },
        {
          "indexed": false,
          "name": "_forSale",
          "type": "bool"
        }
      ],
      "name": "LogStoreProductPriceChanged",
      "type": "event"
    },
    {
      "anonymous": false,
      "inputs": [
        {
          "indexed": false,
          "name": "_newManagerID",
          "type": "uint256"
        },
        {
          "indexed": false,
          "name": "_newManagerName",
          "type": "string"
        },
        {
          "indexed": false,
          "name": "_newManagerAuth",
          "type": "bool"
        },
        {
          "indexed": false,
          "name": "_newManagerAddress",
          "type": "address"
        }
      ],
      "name": "LogStoreManAdded",
      "type": "event"
    },
    {
      "anonymous": false,
      "inputs": [
        {
          "indexed": false,
          "name": "_oldManagerID",
          "type": "uint256"
        },
        {
          "indexed": false,
          "name": "_oldManagerName",
          "type": "string"
        },
        {
          "indexed": false,
          "name": "_oldManagerAuth",
          "type": "bool"
        },
        {
          "indexed": false,
          "name": "_oldManagerAddress",
          "type": "address"
        }
      ],
      "name": "LogStoreManRemoved",
      "type": "event"
    },
    {
      "anonymous": false,
      "inputs": [
        {
          "indexed": false,
          "name": "_readStoreFunds",
          "type": "uint256"
        }
      ],
      "name": "LogReadStoreFunds",
      "type": "event"
    },
    {
      "anonymous": false,
      "inputs": [
        {
          "indexed": false,
          "name": "_amountWithdrawn",
          "type": "uint256"
        }
      ],
      "name": "LogStoreFundsWithdrawn",
      "type": "event"
    },
    {
      "anonymous": false,
      "inputs": [
        {
          "indexed": false,
          "name": "_emergencySwitchValue",
          "type": "bool"
        }
      ],
      "name": "LogEmergencyStopSwitch",
      "type": "event"
    },
    {
      "constant": false,
      "inputs": [
        {
          "name": "readProductID",
          "type": "uint256"
        }
      ],
      "name": "readStoreProducts",
      "outputs": [
        {
          "name": "_readProductID",
          "type": "uint256"
        },
        {
          "name": "_readProductName",
          "type": "string"
        },
        {
          "name": "_readTotalUnits",
          "type": "uint256"
        },
        {
          "name": "_readUnitPrice",
          "type": "uint256"
        },
        {
          "name": "_forSale",
          "type": "bool"
        },
        {
          "name": "_buyersAcc",
          "type": "uint256"
        }
      ],
      "payable": false,
      "stateMutability": "nonpayable",
      "type": "function"
    },
    {
      "constant": false,
      "inputs": [
        {
          "name": "buyProductID",
          "type": "uint256"
        }
      ],
      "name": "buyStoreProduct",
      "outputs": [
        {
          "name": "_buyProductID",
          "type": "uint256"
        },
        {
          "name": "_buyProductName",
          "type": "string"
        },
        {
          "name": "_buyTotalUnits",
          "type": "uint256"
        },
        {
          "name": "_buyUnitPrice",
          "type": "uint256"
        }
      ],
      "payable": true,
      "stateMutability": "payable",
      "type": "function"
    },
    {
      "constant": false,
      "inputs": [
        {
          "name": "newProductName",
          "type": "string"
        },
        {
          "name": "newTotalUnits",
          "type": "uint256"
        },
        {
          "name": "newUnitPrice",
          "type": "uint256"
        }
      ],
      "name": "addStoreProduct",
      "outputs": [
        {
          "name": "_productIDGen",
          "type": "uint256"
        },
        {
          "name": "_newProductName",
          "type": "string"
        },
        {
          "name": "_newTotalUnits",
          "type": "uint256"
        },
        {
          "name": "_newUnitPrice",
          "type": "uint256"
        },
        {
          "name": "_forSale",
          "type": "bool"
        },
        {
          "name": "_buyersAcc",
          "type": "uint256"
        }
      ],
      "payable": false,
      "stateMutability": "nonpayable",
      "type": "function"
    },
    {
      "constant": false,
      "inputs": [
        {
          "name": "oldProductID",
          "type": "uint256"
        }
      ],
      "name": "removeStoreProduct",
      "outputs": [
        {
          "name": "_oldProductID",
          "type": "uint256"
        },
        {
          "name": "_oldProductName",
          "type": "string"
        },
        {
          "name": "_oldTotalUnits",
          "type": "uint256"
        },
        {
          "name": "_oldUnitPrice",
          "type": "uint256"
        },
        {
          "name": "_forSale",
          "type": "bool"
        },
        {
          "name": "_buyersAcc",
          "type": "uint256"
        }
      ],
      "payable": false,
      "stateMutability": "nonpayable",
      "type": "function"
    },
    {
      "constant": false,
      "inputs": [
        {
          "name": "changeProductID",
          "type": "uint256"
        },
        {
          "name": "changeUnitPrice",
          "type": "uint256"
        }
      ],
      "name": "changeStoreProductPrice",
      "outputs": [
        {
          "name": "_changeProductID",
          "type": "uint256"
        },
        {
          "name": "_changeProductName",
          "type": "string"
        },
        {
          "name": "_changeTotalUnits",
          "type": "uint256"
        },
        {
          "name": "_changeUnitPrice",
          "type": "uint256"
        },
        {
          "name": "_forSale",
          "type": "bool"
        }
      ],
      "payable": false,
      "stateMutability": "nonpayable",
      "type": "function"
    },
    {
      "constant": false,
      "inputs": [
        {
          "name": "newManagerName",
          "type": "string"
        },
        {
          "name": "newManagerAddress",
          "type": "address"
        }
      ],
      "name": "addStoreManager",
      "outputs": [
        {
          "name": "_manIDGen",
          "type": "uint256"
        },
        {
          "name": "_manName",
          "type": "string"
        },
        {
          "name": "_manAuth",
          "type": "bool"
        },
        {
          "name": "_manAddress",
          "type": "address"
        }
      ],
      "payable": false,
      "stateMutability": "nonpayable",
      "type": "function"
    },
    {
      "constant": false,
      "inputs": [
        {
          "name": "oldManagerAddress",
          "type": "address"
        }
      ],
      "name": "removeStoreManager",
      "outputs": [
        {
          "name": "_manIDGen",
          "type": "uint256"
        },
        {
          "name": "_manName",
          "type": "string"
        },
        {
          "name": "_manAuth",
          "type": "bool"
        },
        {
          "name": "_manAddress",
          "type": "address"
        }
      ],
      "payable": false,
      "stateMutability": "nonpayable",
      "type": "function"
    },
    {
      "constant": false,
      "inputs": [],
      "name": "readStoreFunds",
      "outputs": [
        {
          "name": "_readStoreFunds",
          "type": "uint256"
        }
      ],
      "payable": false,
      "stateMutability": "nonpayable",
      "type": "function"
    },
    {
      "constant": false,
      "inputs": [],
      "name": "withdrawStoreFunds",
      "outputs": [
        {
          "name": "_amountWithdrawn",
          "type": "uint256"
        }
      ],
      "payable": false,
      "stateMutability": "nonpayable",
      "type": "function"
    }
  ],
  "bytecode": "0x608060405234801561001057600080fd5b50336000806101000a81548173ffffffffffffffffffffffffffffffffffffffff021916908373ffffffffffffffffffffffffffffffffffffffff16021790555033600160006101000a81548173ffffffffffffffffffffffffffffffffffffffff021916908373ffffffffffffffffffffffffffffffffffffffff16021790555061366c806100a16000396000f3fe6080604052600436106100fe5760003560e01c8063660eb4a311610095578063a882d4e911610064578063a882d4e9146107b7578063c95a370614610892578063e621a3871461095f578063facbb435146109b4578063fdd4a90614610b30576100fe565b8063660eb4a3146105f75780637c612f2a1461064e57806397895cf61461067d578063a278314b146106a8576100fe565b80632ae48220116100d15780632ae482201461028e5780634d8043011461036a57806351545984146105105780635b6ac2d21461053b576100fe565b8063013593ca146101035780630e29975e1461012e578063172ad39c146101855780632671db3514610263575b600080fd5b34801561010f57600080fd5b50610118610c0b565b6040518082815260200191505060405180910390f35b34801561013a57600080fd5b50610143610c11565b604051808273ffffffffffffffffffffffffffffffffffffffff1673ffffffffffffffffffffffffffffffffffffffff16815260200191505060405180910390f35b34801561019157600080fd5b506101c8600480360360408110156101a857600080fd5b810190808035906020019092919080359060200190929190505050610c36565b604051808681526020018060200185815260200184815260200183151515158152602001828103825286818151815260200191508051906020019080838360005b83811015610224578082015181840152602081019050610209565b50505050905090810190601f1680156102515780820380516001836020036101000a031916815260200191505b50965050505050505060405180910390f35b34801561026f57600080fd5b50610278611094565b6040518082815260200191505060405180910390f35b34801561029a57600080fd5b506102dd600480360360208110156102b157600080fd5b81019080803573ffffffffffffffffffffffffffffffffffffffff16906020019092919050505061109a565b604051808481526020018060200183151515158152602001828103825284818151815260200191508051906020019080838360005b8381101561032d578082015181840152602081019050610312565b50505050905090810190601f16801561035a5780820380516001836020036101000a031916815260200191505b5094505050505060405180910390f35b34801561037657600080fd5b506104506004803603604081101561038d57600080fd5b81019080803590602001906401000000008111156103aa57600080fd5b8201836020820111156103bc57600080fd5b803590602001918460018302840111640100000000831117156103de57600080fd5b91908080601f016020809104026020016040519081016040528093929190818152602001838380828437600081840152601f19601f820116905080830192505050505050509192919290803573ffffffffffffffffffffffffffffffffffffffff169060200190929190505050611169565b6040518085815260200180602001841515151581526020018373ffffffffffffffffffffffffffffffffffffffff1673ffffffffffffffffffffffffffffffffffffffff168152602001828103825285818151815260200191508051906020019080838360005b838110156104d25780820151818401526020810190506104b7565b50505050905090810190601f1680156104ff5780820380516001836020036101000a031916815260200191505b509550505050505060405180910390f35b34801561051c57600080fd5b506105256116e4565b6040518082815260200191505060405180910390f35b6105676004803603602081101561055157600080fd5b810190808035906020019092919050505061184f565b6040518085815260200180602001848152602001838152602001828103825285818151815260200191508051906020019080838360005b838110156105b957808201518184015260208101905061059e565b50505050905090810190601f1680156105e65780820380516001836020036101000a031916815260200191505b509550505050505060405180910390f35b34801561060357600080fd5b5061060c611d17565b604051808273ffffffffffffffffffffffffffffffffffffffff1673ffffffffffffffffffffffffffffffffffffffff16815260200191505060405180910390f35b34801561065a57600080fd5b50610663611d3d565b604051808215151515815260200191505060405180910390f35b34801561068957600080fd5b50610692611d50565b6040518082815260200191505060405180910390f35b3480156106b457600080fd5b506106f7600480360360208110156106cb57600080fd5b81019080803573ffffffffffffffffffffffffffffffffffffffff169060200190929190505050611e52565b6040518085815260200180602001841515151581526020018373ffffffffffffffffffffffffffffffffffffffff1673ffffffffffffffffffffffffffffffffffffffff168152602001828103825285818151815260200191508051906020019080838360005b8381101561077957808201518184015260208101905061075e565b50505050905090810190601f1680156107a65780820380516001836020036101000a031916815260200191505b509550505050505060405180910390f35b3480156107c357600080fd5b506107f0600480360360208110156107da57600080fd5b81019080803590602001909291905050506123c8565b604051808781526020018060200186815260200185815260200184151515158152602001838152602001828103825287818151815260200191508051906020019080838360005b83811015610852578082015181840152602081019050610837565b50505050905090810190601f16801561087f5780820380516001836020036101000a031916815260200191505b5097505050505050505060405180910390f35b34801561089e57600080fd5b506108cb600480360360208110156108b557600080fd5b81019080803590602001909291905050506128a5565b604051808060200185815260200184815260200183151515158152602001828103825286818151815260200191508051906020019080838360005b83811015610921578082015181840152602081019050610906565b50505050905090810190601f16801561094e5780820380516001836020036101000a031916815260200191505b509550505050505060405180910390f35b34801561096b57600080fd5b5061099a6004803603602081101561098257600080fd5b8101908080351515906020019092919050505061297a565b604051808215151515815260200191505060405180910390f35b3480156109c057600080fd5b50610a8e600480360360608110156109d757600080fd5b81019080803590602001906401000000008111156109f457600080fd5b820183602082011115610a0657600080fd5b80359060200191846001830284011164010000000083111715610a2857600080fd5b91908080601f016020809104026020016040519081016040528093929190818152602001838380828437600081840152601f19601f8201169050808301925050505050505091929192908035906020019092919080359060200190929190505050612a8d565b604051808781526020018060200186815260200185815260200184151515158152602001838152602001828103825287818151815260200191508051906020019080838360005b83811015610af0578082015181840152602081019050610ad5565b50505050905090810190601f168015610b1d5780820380516001836020036101000a031916815260200191505b5097505050505050505060405180910390f35b348015610b3c57600080fd5b50610b6960048036036020811015610b5357600080fd5b810190808035906020019092919050505061305c565b604051808781526020018060200186815260200185815260200184151515158152602001838152602001828103825287818151815260200191508051906020019080838360005b83811015610bcb578082015181840152602081019050610bb0565b50505050905090810190601f168015610bf85780820380516001836020036101000a031916815260200191505b5097505050505050505060405180910390f35b60025481565b6000809054906101000a900473ffffffffffffffffffffffffffffffffffffffff1681565b600060606000806000801515600060149054906101000a900460ff16151514610caa576040517f08c379a000000000000000000000000000000000000000000000000000000000815260040180806020018281038252603b81526020018061354c603b913960400191505060405180910390fd5b60011515600560003373ffffffffffffffffffffffffffffffffffffffff1673ffffffffffffffffffffffffffffffffffffffff16815260200190815260200160002060020160009054906101000a900460ff16151514610d56576040517f08c379a00000000000000000000000000000000000000000000000000000000081526004018080602001828103825260338152602001806135876033913960400191505060405180910390fd5b86600115156004600083815260200190815260200160002060030160009054906101000a900460ff16151514610dd7576040517f08c379a00000000000000000000000000000000000000000000000000000000081526004018080602001828103825260308152602001806135ba6030913960400191505060405180910390fd5b866103e8811115610e33576040517f08c379a00000000000000000000000000000000000000000000000000000000081526004018080602001828103825260328152602001806134826032913960400191505060405180910390fd5b7f2d19c39ec246630210747f1c2c50d6530944a7ef1d48f22c8c557864cc00ce9089600460008c8152602001908152602001600020600001600460008d8152602001908152602001600020600101548b600460008f815260200190815260200160002060030160009054906101000a900460ff16604051808681526020018060200185815260200184815260200183151515158152602001828103825286818154600181600116156101000203166002900481526020019150805460018160011615610100020316600290048015610f4c5780601f10610f2157610100808354040283529160200191610f4c565b820191906000526020600020905b815481529060010190602001808311610f2f57829003601f168201915b5050965050505050505060405180910390a187600460008b81526020019081526020016000206002018190555088600460008b8152602001908152602001600020600001600460008c815260200190815260200160002060010154600460008d815260200190815260200160002060020154600460008e815260200190815260200160002060030160009054906101000a900460ff16838054600181600116156101000203166002900480601f0160208091040260200160405190810160405280929190818152602001828054600181600116156101000203166002900480156110775780601f1061104c57610100808354040283529160200191611077565b820191906000526020600020905b81548152906001019060200180831161105a57829003601f168201915b505050505093509650965096509650965050509295509295909350565b60035481565b6005602052806000526040600020600091509050806000015490806001018054600181600116156101000203166002900480601f01602080910402602001604051908101604052809291908181526020018280546001816001161561010002031660029004801561114c5780601f106111215761010080835404028352916020019161114c565b820191906000526020600020905b81548152906001019060200180831161112f57829003601f168201915b5050505050908060020160009054906101000a900460ff16905083565b6000606060008060001515600060149054906101000a900460ff161515146111dc576040517f08c379a000000000000000000000000000000000000000000000000000000000815260040180806020018281038252603b81526020018061354c603b913960400191505060405180910390fd5b600160009054906101000a900473ffffffffffffffffffffffffffffffffffffffff1673ffffffffffffffffffffffffffffffffffffffff163373ffffffffffffffffffffffffffffffffffffffff1614611282576040517f08c379a00000000000000000000000000000000000000000000000000000000081526004018080602001828103825260338152602001806135ea6033913960400191505060405180910390fd5b600354600560008773ffffffffffffffffffffffffffffffffffffffff1673ffffffffffffffffffffffffffffffffffffffff1681526020019081526020016000206000018190555085600560008773ffffffffffffffffffffffffffffffffffffffff1673ffffffffffffffffffffffffffffffffffffffff16815260200190815260200160002060010190805190602001906113219291906133dc565b506001600560008773ffffffffffffffffffffffffffffffffffffffff1673ffffffffffffffffffffffffffffffffffffffff16815260200190815260200160002060020160006101000a81548160ff02191690831515021790555060016003600082825401925050819055507f255779f43b954ab4b3a7cc79fca8d0955d4efee2c72da60089cd9ec8bde4877e600560008773ffffffffffffffffffffffffffffffffffffffff1673ffffffffffffffffffffffffffffffffffffffff16815260200190815260200160002060000154600560008873ffffffffffffffffffffffffffffffffffffffff1673ffffffffffffffffffffffffffffffffffffffff168152602001908152602001600020600101600560008973ffffffffffffffffffffffffffffffffffffffff1673ffffffffffffffffffffffffffffffffffffffff16815260200190815260200160002060020160009054906101000a900460ff16886040518085815260200180602001841515151581526020018373ffffffffffffffffffffffffffffffffffffffff1673ffffffffffffffffffffffffffffffffffffffff1681526020018281038252858181546001816001161561010002031660029004815260200191508054600181600116156101000203166002900480156115505780601f1061152557610100808354040283529160200191611550565b820191906000526020600020905b81548152906001019060200180831161153357829003601f168201915b50509550505050505060405180910390a1600560008673ffffffffffffffffffffffffffffffffffffffff1673ffffffffffffffffffffffffffffffffffffffff16815260200190815260200160002060000154600560008773ffffffffffffffffffffffffffffffffffffffff1673ffffffffffffffffffffffffffffffffffffffff168152602001908152602001600020600101600560008873ffffffffffffffffffffffffffffffffffffffff1673ffffffffffffffffffffffffffffffffffffffff16815260200190815260200160002060020160009054906101000a900460ff1687828054600181600116156101000203166002900480601f0160208091040260200160405190810160405280929190818152602001828054600181600116156101000203166002900480156116cc5780601f106116a1576101008083540402835291602001916116cc565b820191906000526020600020905b8154815290600101906020018083116116af57829003601f168201915b50505050509250935093509350935092959194509250565b6000600160009054906101000a900473ffffffffffffffffffffffffffffffffffffffff1673ffffffffffffffffffffffffffffffffffffffff163373ffffffffffffffffffffffffffffffffffffffff161461178c576040517f08c379a00000000000000000000000000000000000000000000000000000000081526004018080602001828103825260338152602001806135ea6033913960400191505060405180910390fd5b60003073ffffffffffffffffffffffffffffffffffffffff163190507fbe846382c1eda1b3df10dfc1958ec79bfff22be10c68b42f7cbfc676ae1723b9816040518082815260200191505060405180910390a1600160009054906101000a900473ffffffffffffffffffffffffffffffffffffffff1673ffffffffffffffffffffffffffffffffffffffff166108fc829081150290604051600060405180830381858888f19350505050158015611847573d6000803e3d6000fd5b508091505090565b6000606060008060001515600060149054906101000a900460ff161515146118c2576040517f08c379a000000000000000000000000000000000000000000000000000000000815260040180806020018281038252603b81526020018061354c603b913960400191505060405180910390fd5b84600115156004600083815260200190815260200160002060030160009054906101000a900460ff16151514611943576040517f08c379a00000000000000000000000000000000000000000000000000000000081526004018080602001828103825260308152602001806135ba6030913960400191505060405180910390fd5b856001600460008381526020019081526020016000206001015410156119b4576040517f08c379a000000000000000000000000000000000000000000000000000000000815260040180806020018281038252602481526020018061361d6024913960400191505060405180910390fd5b600460008881526020019081526020016000206002015480341015611a24576040517f08c379a000000000000000000000000000000000000000000000000000000000815260040180806020018281038252602e8152602001806134b4602e913960400191505060405180910390fd5b60046000898152602001908152602001600020600201546001600460008b8152602001908152602001600020600101600082825403925050819055506001600460008b815260200190815260200160002060040160003373ffffffffffffffffffffffffffffffffffffffff1673ffffffffffffffffffffffffffffffffffffffff168152602001908152602001600020600082825401925050819055507fd9ad496cd763e2d8d7ada4e2d15ea06a1ed837c3fc4e6436055525f2f75ecd6689600460008c8152602001908152602001600020600001600460008d815260200190815260200160002060010154600460008e8152602001908152602001600020600201546040518085815260200180602001848152602001838152602001828103825285818154600181600116156101000203166002900481526020019150805460018160011615610100020316600290048015611bc35780601f10611b9857610100808354040283529160200191611bc3565b820191906000526020600020905b815481529060010190602001808311611ba657829003601f168201915b50509550505050505060405180910390a188600460008b8152602001908152602001600020600001600460008c815260200190815260200160002060010154600460008d815260200190815260200160002060020154828054600181600116156101000203166002900480601f016020809104026020016040519081016040528092919081815260200182805460018160011615610100020316600290048015611cae5780601f10611c8357610100808354040283529160200191611cae565b820191906000526020600020905b815481529060010190602001808311611c9157829003601f168201915b505050505092509750975097509750600081340390503373ffffffffffffffffffffffffffffffffffffffff166108fc829081150290604051600060405180830381858888f19350505050158015611d0a573d6000803e3d6000fd5b5050505050509193509193565b600160009054906101000a900473ffffffffffffffffffffffffffffffffffffffff1681565b600060149054906101000a900460ff1681565b6000600160009054906101000a900473ffffffffffffffffffffffffffffffffffffffff1673ffffffffffffffffffffffffffffffffffffffff163373ffffffffffffffffffffffffffffffffffffffff1614611df8576040517f08c379a00000000000000000000000000000000000000000000000000000000081526004018080602001828103825260338152602001806135ea6033913960400191505060405180910390fd5b60003073ffffffffffffffffffffffffffffffffffffffff163190507f51b5ff2ba33cc7fd03bbf6fbeaaa46576a8c03e70fb6fe74d99f800242b304d8816040518082815260200191505060405180910390a18091505090565b6000606060008060001515600060149054906101000a900460ff16151514611ec5576040517f08c379a000000000000000000000000000000000000000000000000000000000815260040180806020018281038252603b81526020018061354c603b913960400191505060405180910390fd5b600160009054906101000a900473ffffffffffffffffffffffffffffffffffffffff1673ffffffffffffffffffffffffffffffffffffffff163373ffffffffffffffffffffffffffffffffffffffff1614611f6b576040517f08c379a00000000000000000000000000000000000000000000000000000000081526004018080602001828103825260338152602001806135ea6033913960400191505060405180910390fd5b8460011515600560008373ffffffffffffffffffffffffffffffffffffffff1673ffffffffffffffffffffffffffffffffffffffff16815260200190815260200160002060020160009054906101000a900460ff16151514612018576040517f08c379a000000000000000000000000000000000000000000000000000000000815260040180806020018281038252603281526020018061351a6032913960400191505060405180910390fd5b6000600560008873ffffffffffffffffffffffffffffffffffffffff1673ffffffffffffffffffffffffffffffffffffffff16815260200190815260200160002060020160006101000a81548160ff0219169083151502179055507f47cdc8fe64b54f4570231055b71c125c95416233a85e2056d7bced51bb0c2f3c600560008873ffffffffffffffffffffffffffffffffffffffff1673ffffffffffffffffffffffffffffffffffffffff16815260200190815260200160002060000154600560008973ffffffffffffffffffffffffffffffffffffffff1673ffffffffffffffffffffffffffffffffffffffff168152602001908152602001600020600101600560008a73ffffffffffffffffffffffffffffffffffffffff1673ffffffffffffffffffffffffffffffffffffffff16815260200190815260200160002060020160009054906101000a900460ff16896040518085815260200180602001841515151581526020018373ffffffffffffffffffffffffffffffffffffffff1673ffffffffffffffffffffffffffffffffffffffff1681526020018281038252858181546001816001161561010002031660029004815260200191508054600181600116156101000203166002900480156122355780601f1061220a57610100808354040283529160200191612235565b820191906000526020600020905b81548152906001019060200180831161221857829003601f168201915b50509550505050505060405180910390a1600560008773ffffffffffffffffffffffffffffffffffffffff1673ffffffffffffffffffffffffffffffffffffffff16815260200190815260200160002060000154600560008873ffffffffffffffffffffffffffffffffffffffff1673ffffffffffffffffffffffffffffffffffffffff168152602001908152602001600020600101600560008973ffffffffffffffffffffffffffffffffffffffff1673ffffffffffffffffffffffffffffffffffffffff16815260200190815260200160002060020160009054906101000a900460ff1688828054600181600116156101000203166002900480601f0160208091040260200160405190810160405280929190818152602001828054600181600116156101000203166002900480156123b15780601f10612386576101008083540402835291602001916123b1565b820191906000526020600020905b81548152906001019060200180831161239457829003601f168201915b505050505092509450945094509450509193509193565b6000606060008060008060001515600060149054906101000a900460ff1615151461243e576040517f08c379a000000000000000000000000000000000000000000000000000000000815260040180806020018281038252603b81526020018061354c603b913960400191505060405180910390fd5b60011515600560003373ffffffffffffffffffffffffffffffffffffffff1673ffffffffffffffffffffffffffffffffffffffff16815260200190815260200160002060020160009054906101000a900460ff161515146124ea576040517f08c379a00000000000000000000000000000000000000000000000000000000081526004018080602001828103825260338152602001806135876033913960400191505060405180910390fd5b86600115156004600083815260200190815260200160002060030160009054906101000a900460ff1615151461256b576040517f08c379a00000000000000000000000000000000000000000000000000000000081526004018080602001828103825260308152602001806135ba6030913960400191505060405180910390fd5b6000600460008a815260200190815260200160002060030160006101000a81548160ff0219169083151502179055507f93f65d9d48b97e7e277b8113ec325f86eaa5afeccea6b718971d0f6d76e170e388600460008b8152602001908152602001600020600001600460008c815260200190815260200160002060010154600460008d815260200190815260200160002060020154600460008e815260200190815260200160002060030160009054906101000a900460ff16600460008f815260200190815260200160002060040160003373ffffffffffffffffffffffffffffffffffffffff1673ffffffffffffffffffffffffffffffffffffffff168152602001908152602001600020546040518087815260200180602001868152602001858152602001841515151581526020018381526020018281038252878181546001816001161561010002031660029004815260200191508054600181600116156101000203166002900480156127235780601f106126f857610100808354040283529160200191612723565b820191906000526020600020905b81548152906001019060200180831161270657829003601f168201915b505097505050505050505060405180910390a187600460008a8152602001908152602001600020600001600460008b815260200190815260200160002060010154600460008c815260200190815260200160002060020154600460008d815260200190815260200160002060030160009054906101000a900460ff16600460008e815260200190815260200160002060040160003373ffffffffffffffffffffffffffffffffffffffff1673ffffffffffffffffffffffffffffffffffffffff16815260200190815260200160002054848054600181600116156101000203166002900480601f0160208091040260200160405190810160405280929190818152602001828054600181600116156101000203166002900480156128885780601f1061285d57610100808354040283529160200191612888565b820191906000526020600020905b81548152906001019060200180831161286b57829003601f168201915b505050505094509650965096509650965096505091939550919395565b6004602052806000526040600020600091509050806000018054600181600116156101000203166002900480601f0160208091040260200160405190810160405280929190818152602001828054600181600116156101000203166002900480156129515780601f1061292657610100808354040283529160200191612951565b820191906000526020600020905b81548152906001019060200180831161293457829003601f168201915b5050505050908060010154908060020154908060030160009054906101000a900460ff16905084565b60003373ffffffffffffffffffffffffffffffffffffffff166000809054906101000a900473ffffffffffffffffffffffffffffffffffffffff1673ffffffffffffffffffffffffffffffffffffffff1614612a21576040517f08c379a00000000000000000000000000000000000000000000000000000000081526004018080602001828103825260338152602001806135ea6033913960400191505060405180910390fd5b7f7813715e6276e764527fb3fc9d9ff59f3239bfbd4c4a3a6fb3a8e54da660f0ad82604051808215151515815260200191505060405180910390a181600060146101000a81548160ff021916908315150217905550600060149054906101000a900460ff169050919050565b6000606060008060008060001515600060149054906101000a900460ff16151514612b03576040517f08c379a000000000000000000000000000000000000000000000000000000000815260040180806020018281038252603b81526020018061354c603b913960400191505060405180910390fd5b60011515600560003373ffffffffffffffffffffffffffffffffffffffff1673ffffffffffffffffffffffffffffffffffffffff16815260200190815260200160002060020160009054906101000a900460ff16151514612baf576040517f08c379a00000000000000000000000000000000000000000000000000000000081526004018080602001828103825260338152602001806135876033913960400191505060405180910390fd5b866103e8811115612c0b576040517f08c379a00000000000000000000000000000000000000000000000000000000081526004018080602001828103825260328152602001806134826032913960400191505060405180910390fd5b88620f4240811115612c68576040517f08c379a00000000000000000000000000000000000000000000000000000000081526004018080602001828103825260388152602001806134e26038913960400191505060405180910390fd5b8a6004600060025481526020019081526020016000206000019080519060200190612c949291906133dc565b5089600460006002548152602001908152602001600020600101819055508860046000600254815260200190815260200160002060020181905550600160046000600254815260200190815260200160002060030160006101000a81548160ff02191690831515021790555060016002600082825401925050819055507f4c8ad7e39e2956741d54fb77f73cbb9c5367e07fd6148777c798967afb9eaba1600160025403600460006001600254038152602001908152602001600020600001600460006001600254038152602001908152602001600020600101546004600060016002540381526020019081526020016000206002015460046000600160025403815260200190815260200160002060030160009054906101000a900460ff1660046000600160025403815260200190815260200160002060040160003373ffffffffffffffffffffffffffffffffffffffff1673ffffffffffffffffffffffffffffffffffffffff16815260200190815260200160002054604051808781526020018060200186815260200185815260200184151515158152602001838152602001828103825287818154600181600116156101000203166002900481526020019150805460018160011615610100020316600290048015612eb85780601f10612e8d57610100808354040283529160200191612eb8565b820191906000526020600020905b815481529060010190602001808311612e9b57829003601f168201915b505097505050505050505060405180910390a1600160025403600460006001600254038152602001908152602001600020600001600460006001600254038152602001908152602001600020600101546004600060016002540381526020019081526020016000206002015460046000600160025403815260200190815260200160002060030160009054906101000a900460ff1660046000600160025403815260200190815260200160002060040160003373ffffffffffffffffffffffffffffffffffffffff1673ffffffffffffffffffffffffffffffffffffffff16815260200190815260200160002054848054600181600116156101000203166002900480601f01602080910402602001604051908101604052809291908181526020018280546001816001161561010002031660029004801561303b5780601f106130105761010080835404028352916020019161303b565b820191906000526020600020905b81548152906001019060200180831161301e57829003601f168201915b50505050509450975097509750975097509750505093975093979195509350565b6000606060008060008060001515600060149054906101000a900460ff161515146130d2576040517f08c379a000000000000000000000000000000000000000000000000000000000815260040180806020018281038252603b81526020018061354c603b913960400191505060405180910390fd5b7f1899a90eea1c73053c457689ece2581dcf063bf2bbedf8ed5958a8deec04180987600460008a8152602001908152602001600020600001600460008b815260200190815260200160002060010154600460008c815260200190815260200160002060020154600460008d815260200190815260200160002060030160009054906101000a900460ff16600460008e815260200190815260200160002060040160003373ffffffffffffffffffffffffffffffffffffffff1673ffffffffffffffffffffffffffffffffffffffff1681526020019081526020016000205460405180878152602001806020018681526020018581526020018415151515815260200183815260200182810382528781815460018160011615610100020316600290048152602001915080546001816001161561010002031660029004801561325b5780601f106132305761010080835404028352916020019161325b565b820191906000526020600020905b81548152906001019060200180831161323e57829003601f168201915b505097505050505050505060405180910390a18660046000898152602001908152602001600020600001600460008a815260200190815260200160002060010154600460008b815260200190815260200160002060020154600460008c815260200190815260200160002060030160009054906101000a900460ff16600460008d815260200190815260200160002060040160003373ffffffffffffffffffffffffffffffffffffffff1673ffffffffffffffffffffffffffffffffffffffff16815260200190815260200160002054848054600181600116156101000203166002900480601f0160208091040260200160405190810160405280929190818152602001828054600181600116156101000203166002900480156133c05780601f10613395576101008083540402835291602001916133c0565b820191906000526020600020905b8154815290600101906020018083116133a357829003601f168201915b5050505050945095509550955095509550955091939550919395565b828054600181600116156101000203166002900490600052602060002090601f016020900481019282601f1061341d57805160ff191683800117855561344b565b8280016001018555821561344b579182015b8281111561344a57825182559160200191906001019061342f565b5b509050613458919061345c565b5090565b61347e91905b8082111561347a576000816000905550600101613462565b5090565b9056fe52657175657374206465636c696e65642e20507269636520636170206f6620312c3030302057656920656e666f726365642e5061796d656e74206465636c696e65642e20496e73756666696369656e742066756e64732072656365697665642e52657175657374206465636c696e65642e20546f74616c20756e69747320636170206f6620312c3030302c30303020656e666f726365642e52657175657374206465636c696e65642e2053746f7265206d616e61676572206973206e6f7420617574686f72697365642e4163636573732064656e6965642e205468697320636f6e747261637420686173206265656e2074656d706f726172696c792064697361626c65642e4163636573732064656e6965642e20416363657373207265737472696374656420746f2073746f7265206d616e61676572732e52657175657374206465636c696e65642e2053746f72652070726f64756374206973206e6f7420666f722073616c652e4163636573732064656e6965642e20416363657373207265737472696374656420746f20636f6e7472616374206f776e65722e5061796d656e74206465636c696e65642e20556e6974206f7574206f662073746f636b2ea165627a7a7230582044370d34f5002a8ad458a715869fa4ea17f58b48516c1f8933a8895f62f0fb820029",
  "source": "/// @title Marketplace: A marketplace for listing and buying products\n/// @author John McCrae\n/// @notice This contract inherits EmergencyStop, a contract that implements the circuit breaker design pattern\n\n/// @dev This contract requires solidity compiler version 0.5 or higher.\npragma solidity ^0.5.0;\n\n/// @dev This contract imports EmergencyStop.sol\nimport \"./EmergencyStop.sol\";\n\n/// @dev Marketplace: A contract for listing and buying products\ncontract Marketplace is EmergencyStop {\n\n    /// @param ownerMarketplace A public payable address data type\n    address payable public ownerMarketplace;\n    \n    /// @param productIDGen A public uint data type to keep track of product ID numbers.\n    uint public productIDGen;\n    \n    /// @param managerIDGen A public uint data type to keep track of manager ID numbers\n    uint public managerIDGen;\n\n    /// @param productName A string data type to keep track of store product names\n    /// @param totalUnits A uint data type to keep track of total store product units\n    /// @param unitPrice A uint data type to keep track of store product unit prices\n    /// @param forSale A uint data type to keep track of whether store product is for sale\n    /// @param buyersAcc A uint data type to keep track of total product units held within the buyers account\n    struct Product {\n        string productName;\n        uint totalUnits;\n        uint unitPrice;\n        bool forSale;\n        mapping (address => uint) buyersAcc;\n    }\n    \n    /// @param managerID A uint data type to keep track of store manager ID numbers\n    /// @param managerName A string data type to keep track of store manager names\n    /// @param managerAuth A boolean data type to keep track of store manager authorisation\n    struct Managers {\n        uint managerID;\n        string managerName;\n        bool managerAuth;\n    }\n    \n    /// @param storeProd A mapping data type with key as uint (store product ID) and value as struct Products (store product data)\n    mapping (uint => Product) public storeProd;\n\n    /// @param storeMan A mapping data type with key as address (store manager address) and value as struct Managers (store manager data)\n    mapping (address => Managers) public storeMan;\n\n    /// @dev _xxxProductID A uint data type to keep track of store product ID numbers\n    /// @dev _xxxProductName A string data type to keep track of store product names\n    /// @dev _xxxTotalUnits A uint data type to keep track of total store product units\n    /// @dev _xxxUnitPrice A uint data type to keep track of store product unit prices\n    /// @dev _xxxforSale A uint data type to keep track of whether store product is for sale\n    /// @dev _xxxbuyersAcc A uint data type to keep track of total product units held within the buyers account\n    /// @dev _readStoreFunds A uint data type to output value of store funds\n    /// @dev _contractBalance A uint data type to output value of store funds withdrawl\n    event LogStoreProductsRead(uint _readProductID, string _readProductName, uint _readTotalUnits, uint _readUnitPrice, bool _forSale, uint _buyersAcc);\n    event LogStoreProductBuy(uint _buyProductID, string _buyProductName, uint _buyTotalUnits, uint _buyUnitPrice);\n    event LogStoreProductAdded(uint _newProductID, string _newProductName, uint _newTotalUnits, uint _newUnitPrice, bool _forSale, uint _buyersAcc);\n    event LogStoreProductRemoved(uint _oldProductID, string _oldProductName, uint _oldTotalUnits, uint _oldUnitPrice, bool _forSale, uint _buyersAcc);\n    event LogStoreProductPriceChanged(uint _changeProductID, string _changeProductName, uint _changeTotalUnits, uint _changeUnitPrice, bool _forSale);\n    event LogStoreManAdded(uint _newManagerID, string _newManagerName, bool _newManagerAuth, address _newManagerAddress);\n    event LogStoreManRemoved(uint _oldManagerID, string _oldManagerName, bool _oldManagerAuth, address _oldManagerAddress);\n    event LogReadStoreFunds(uint _readStoreFunds);\n    event LogStoreFundsWithdrawn(uint _amountWithdrawn);\n\n\n    /// @dev verifyOwnerMarketplace A modifier requiring the message sender address is equal to the ownerMarketplace address\n    modifier verifyOwnerMarketplace () {\n        require (msg.sender == ownerMarketplace, \"Access denied. Access restricted to contract owner.\");\n        _;\n    }\n\n    /// @dev verifyManagerMarketplace A modifier requiring the message sender has been authorised as a store manager\n    modifier verifyManagerMarketplace () {\n        require (storeMan[msg.sender].managerAuth == true, \"Access denied. Access restricted to store managers.\");\n        _;\n    }\n\n    /// @dev verifyProductForSale A modifier requiring the requested store product to be currently registered as for sale.\n    modifier verifyProductForSale (uint _productID) {\n        require (storeProd[_productID].forSale == true, \"Request declined. Store product is not for sale.\");\n        _;\n    }\n    \n    /// @dev verifyManagerAuth A modifier requiring the requested store manager to be currently registered as authorised.\n    modifier verifyManagerAuth (address _manAddress) {\n        require (storeMan[_manAddress].managerAuth == true, \"Request declined. Store manager is not authorised.\");\n        _;\n    }\n\n    /// @dev verifyWithinPriceCap A modifier requiring product prices to be below a cap of 1,000 Wei. This mitigates risk of money loss\n    modifier verifyWithinPriceCap (uint _newUnitPrice) {\n        require (_newUnitPrice <= 1000, \"Request declined. Price cap of 1,000 Wei enforced.\");\n        _;\n    }\n    \n    /// @dev verifyWithinUnitsCap A modifier requiring total units to be below a cap of 1,000,000. This mitigates risk of integer overflow\n    modifier verifyWithinUnitsCap (uint _newTotalUnits) {\n        require (_newTotalUnits <= 1000000, \"Request declined. Total units cap of 1,000,000 enforced.\");\n        _;\n    }\n\n    /// @dev verifyUnitsEnough A modifier requiring product units to be in stock prior to purchase\n    modifier verifyUnitsEnough (uint _productID) {\n        require (storeProd[_productID].totalUnits >= 1, \"Payment declined. Unit out of stock.\");\n        _;\n    }\n\n    /// @dev verifyPaidEnough A modifier requiring buyer payment value to be no less than unit price\n    modifier verifyPaidEnough (uint _orderPrice) {\n        require (msg.value >= _orderPrice, \"Payment declined. Insufficient funds received.\");\n        _;\n    }\n    \n    /// @dev sendPaymentChange A modifier that refunds buyers in the event they send too much ether\n    modifier sendPaymentChange (uint _orderPrice) {\n        _;\n        uint paymentChange = msg.value - _orderPrice;\n        msg.sender.transfer(paymentChange);\n    }\n    \n    /// @dev Declare constructor. Set ownerMarketplace to be the contract creator\n    constructor () public {\n        ownerMarketplace = msg.sender;\n    }\n    \n    /// @dev readStoreProducts() A function to read store product data\n    /// @param readProductID A uint data type to read data associated with store product ID\n    /// @return _xxxProductID, _xxxProductName, _xxxTotalUnits, _xxxUnitPrice, _xxxforSale, _xxxbuyersAcc\n    function readStoreProducts(uint readProductID)\n        public\n        verifyEmergencyStopValue\n        returns(uint _readProductID, string memory _readProductName, uint _readTotalUnits, uint _readUnitPrice, bool _forSale, uint _buyersAcc)\n    {\n        emit LogStoreProductsRead(readProductID, storeProd[readProductID].productName, storeProd[readProductID].totalUnits, storeProd[readProductID].unitPrice, storeProd[readProductID].forSale, storeProd[readProductID].buyersAcc[msg.sender]);\n        return(readProductID, storeProd[readProductID].productName, storeProd[readProductID].totalUnits, storeProd[readProductID].unitPrice, storeProd[readProductID].forSale, storeProd[readProductID].buyersAcc[msg.sender]);\n    }\n    \n    /// @dev buyStoreProduct() A function to buy a store product\n    /// @param buyProductID A uint data type to buy store product associated with store product ID\n    /// @return _xxxProductID, _xxxProductName, _xxxTotalUnits, _xxxUnitPrice\n    function buyStoreProduct(uint buyProductID)\n        public\n        payable\n        verifyEmergencyStopValue\n        verifyProductForSale (buyProductID)\n        verifyUnitsEnough (buyProductID)\n        verifyPaidEnough (storeProd[buyProductID].unitPrice)\n        sendPaymentChange (storeProd[buyProductID].unitPrice)\n        returns(uint _buyProductID, string memory _buyProductName, uint _buyTotalUnits, uint _buyUnitPrice)\n    {\n        storeProd[buyProductID].totalUnits -= 1;\n        storeProd[buyProductID].buyersAcc[msg.sender] += 1;\n        emit LogStoreProductBuy(buyProductID, storeProd[buyProductID].productName, storeProd[buyProductID].totalUnits, storeProd[buyProductID].unitPrice);\n        return(buyProductID, storeProd[buyProductID].productName, storeProd[buyProductID].totalUnits, storeProd[buyProductID].unitPrice);\n    }\n\n    /// @dev addStoreProduct() A function to add a new store product ***Restricted to store manager (authorised by store owner)***\n    /// @param newProductName A string data type to add new store product name\n    /// @param newTotalUnits A uint data type to add new total store product units\n    /// @param newUnitPrice A uint data type to add new store product unit price\n    /// @return _xxxProductID, _xxxProductName, _xxxTotalUnits, _xxxUnitPrice, _xxxforSale, _xxxbuyersAcc\n    function addStoreProduct(string memory newProductName, uint newTotalUnits, uint newUnitPrice)\n        public\n        verifyEmergencyStopValue\n        verifyManagerMarketplace\n        verifyWithinPriceCap (newUnitPrice)\n        verifyWithinUnitsCap (newTotalUnits)\n        returns(uint _productIDGen, string memory _newProductName, uint _newTotalUnits, uint _newUnitPrice, bool _forSale, uint _buyersAcc)\n    {\n        storeProd[productIDGen].productName = newProductName;\n        storeProd[productIDGen].totalUnits = newTotalUnits;\n        storeProd[productIDGen].unitPrice = newUnitPrice;\n        storeProd[productIDGen].forSale = true;\n        productIDGen += 1;\n        emit LogStoreProductAdded(productIDGen - 1, storeProd[productIDGen - 1].productName, storeProd[productIDGen - 1].totalUnits, storeProd[productIDGen - 1].unitPrice, storeProd[productIDGen - 1].forSale, storeProd[productIDGen - 1].buyersAcc[msg.sender]);\n        return (productIDGen - 1, storeProd[productIDGen - 1].productName, storeProd[productIDGen - 1].totalUnits, storeProd[productIDGen - 1].unitPrice, storeProd[productIDGen - 1].forSale, storeProd[productIDGen - 1].buyersAcc[msg.sender]);\n    }\n\n    /// @dev removeStoreProduct() A function to remove an old store product ***Restricted to store manager (authorised by store owner)***\n    /// @param oldProductID A uint data type to remove store product associated with store product ID\n    /// @return _xxxProductID, _xxxProductName, _xxxTotalUnits, _xxxUnitPrice, _xxxforSale, _xxxbuyersAcc\n    function removeStoreProduct(uint oldProductID)\n        public\n        verifyEmergencyStopValue\n        verifyManagerMarketplace\n        verifyProductForSale (oldProductID)\n        returns(uint _oldProductID, string memory _oldProductName, uint _oldTotalUnits, uint _oldUnitPrice, bool _forSale, uint _buyersAcc)\n    {\n        storeProd[oldProductID].forSale = false;        \n        emit LogStoreProductRemoved(oldProductID, storeProd[oldProductID].productName, storeProd[oldProductID].totalUnits, storeProd[oldProductID].unitPrice, storeProd[oldProductID].forSale, storeProd[oldProductID].buyersAcc[msg.sender]);\n        return (oldProductID, storeProd[oldProductID].productName, storeProd[oldProductID].totalUnits, storeProd[oldProductID].unitPrice, storeProd[oldProductID].forSale, storeProd[oldProductID].buyersAcc[msg.sender]);\n    }\n\n    /// @dev changeStoreProductPrice() A function to change the price of a store product ***Restricted to store manager (authorised by store owner)***\n    /// @param changeProductID A uint data type to identify the store product to change\n    /// @param changeUnitPrice A uint data type to state the new price of the store product\n    /// @return _xxxProductID, _xxxProductName, _xxxTotalUnits, _xxxUnitPrice, _xxxforSale\n    function changeStoreProductPrice(uint changeProductID, uint changeUnitPrice)\n        public\n        verifyEmergencyStopValue\n        verifyManagerMarketplace\n        verifyProductForSale (changeProductID)\n        verifyWithinPriceCap (changeUnitPrice)\n        returns(uint _changeProductID, string memory _changeProductName, uint _changeTotalUnits, uint _changeUnitPrice, bool _forSale)\n    {\n        emit LogStoreProductPriceChanged(changeProductID, storeProd[changeProductID].productName, storeProd[changeProductID].totalUnits, changeUnitPrice, storeProd[changeProductID].forSale);\n        storeProd[changeProductID].unitPrice = changeUnitPrice;\n        return (changeProductID, storeProd[changeProductID].productName, storeProd[changeProductID].totalUnits, storeProd[changeProductID].unitPrice, storeProd[changeProductID].forSale);\n    }\n\n    /// @dev addStoreManager() A function to add a new store manager ***Restricted to store owner (contract owner)***\n    /// @param newManagerName A string data type to add a new store manager name\n    /// @param newManagerAddress An address data type to add new store manager address\n    /// @return _xxxManagerID, _xxxManagerName, _xxxManagerAuth, _xxxManagerAddress\n    function addStoreManager(string memory newManagerName, address newManagerAddress)\n        public\n        verifyEmergencyStopValue\n        verifyOwnerMarketplace\n        returns(uint _manIDGen, string memory _manName, bool _manAuth, address _manAddress)\n    {\n        storeMan[newManagerAddress].managerID = managerIDGen;\n        storeMan[newManagerAddress].managerName = newManagerName;\n        storeMan[newManagerAddress].managerAuth = true;\n        managerIDGen += 1;\n        emit LogStoreManAdded(storeMan[newManagerAddress].managerID, storeMan[newManagerAddress].managerName, storeMan[newManagerAddress].managerAuth, newManagerAddress);\n        return (storeMan[newManagerAddress].managerID, storeMan[newManagerAddress].managerName, storeMan[newManagerAddress].managerAuth, newManagerAddress);\n    }\n\n    /// @dev removeStoreManager() A function to remove an old store manager ***Restricted to store owner (contract owner)***\n    /// @param oldManagerAddress An address data type to identify the store manager to remove\n    /// @return _xxxManagerID, _xxxManagerName, _xxxManagerAuth, _xxxManagerAddress\n    function removeStoreManager(address oldManagerAddress)\n        public\n        verifyEmergencyStopValue\n        verifyOwnerMarketplace\n        verifyManagerAuth (oldManagerAddress)\n        returns(uint _manIDGen, string memory _manName, bool _manAuth, address _manAddress)\n    {\n        storeMan[oldManagerAddress].managerAuth = false;\n        emit LogStoreManRemoved(storeMan[oldManagerAddress].managerID, storeMan[oldManagerAddress].managerName, storeMan[oldManagerAddress].managerAuth, oldManagerAddress);\n        return (storeMan[oldManagerAddress].managerID, storeMan[oldManagerAddress].managerName, storeMan[oldManagerAddress].managerAuth, oldManagerAddress);\n    }\n\n    /// @dev readStoreFunds() A function to read store funds. ***Restricted to store owner (contract owner)***\n    /// @return _storeFunds\n    function readStoreFunds()\n        public\n        verifyOwnerMarketplace\n        returns(uint _readStoreFunds)\n    {\n        uint storeFundsAmount = address(this).balance;\n        emit LogReadStoreFunds(storeFundsAmount);\n        return (storeFundsAmount);\n    }\n\n    /// @dev withdrawStoreFunds() A function to withdraw store funds. ***Restricted to store owner (contract owner)***\n    /// @return _amountWithdrawn\n    function withdrawStoreFunds()\n        public\n        verifyOwnerMarketplace\n        returns(uint _amountWithdrawn)\n    {\n        uint amountWithdrawn = address(this).balance;\n        emit LogStoreFundsWithdrawn(amountWithdrawn);\n        ownerMarketplace.transfer(amountWithdrawn);\n        return (amountWithdrawn);\n    }\n\n}",
  "sourcePath": "/home/john/git/Project/contracts/Marketplace.sol",
  "compiler": {
    "name": "solc",
    "version": "0.5.8+commit.23d335f2.Emscripten.clang"
  },
  "schemaVersion": "3.0.11",
  "updatedAt": "2019-07-29T12:43:05.282Z",
  "devdoc": {
    "details": "Marketplace: A contract for listing and buying products",
    "methods": {
      "addStoreManager(string,address)": {
        "details": "addStoreManager() A function to add a new store manager ***Restricted to store owner (contract owner)***",
        "params": {
          "newManagerAddress": "An address data type to add new store manager address",
          "newManagerName": "A string data type to add a new store manager name"
        },
        "return": "_xxxManagerID, _xxxManagerName, _xxxManagerAuth, _xxxManagerAddress"
      },
      "addStoreProduct(string,uint256,uint256)": {
        "details": "addStoreProduct() A function to add a new store product ***Restricted to store manager (authorised by store owner)***",
        "params": {
          "newProductName": "A string data type to add new store product name",
          "newTotalUnits": "A uint data type to add new total store product units",
          "newUnitPrice": "A uint data type to add new store product unit price"
        },
        "return": "_xxxProductID, _xxxProductName, _xxxTotalUnits, _xxxUnitPrice, _xxxforSale, _xxxbuyersAcc"
      },
      "buyStoreProduct(uint256)": {
        "details": "buyStoreProduct() A function to buy a store product",
        "params": {
          "buyProductID": "A uint data type to buy store product associated with store product ID"
        },
        "return": "_xxxProductID, _xxxProductName, _xxxTotalUnits, _xxxUnitPrice"
      },
      "changeStoreProductPrice(uint256,uint256)": {
        "details": "changeStoreProductPrice() A function to change the price of a store product ***Restricted to store manager (authorised by store owner)***",
        "params": {
          "changeProductID": "A uint data type to identify the store product to change",
          "changeUnitPrice": "A uint data type to state the new price of the store product"
        },
        "return": "_xxxProductID, _xxxProductName, _xxxTotalUnits, _xxxUnitPrice, _xxxforSale"
      },
      "constructor": {
        "details": "Declare constructor. Set ownerMarketplace to be the contract creator"
      },
      "emergencyStopFunction(bool)": {
        "details": "emergencyStopFunction() A function that allows setting emergencyStopSwitch (circuit breaker flag) to true or false",
        "params": {
          "emergencySwitchValue": "A boolean data type for changing the state of emergencyStopSwitch (circuit breaker flag)"
        },
        "return": "A boolean data type returning the new value of emergencyStopSwitch (circuit breaker flag)"
      },
      "readStoreFunds()": {
        "details": "readStoreFunds() A function to read store funds. ***Restricted to store owner (contract owner)***",
        "return": "_storeFunds"
      },
      "readStoreProducts(uint256)": {
        "details": "readStoreProducts() A function to read store product data",
        "params": {
          "readProductID": "A uint data type to read data associated with store product ID"
        },
        "return": "_xxxProductID, _xxxProductName, _xxxTotalUnits, _xxxUnitPrice, _xxxforSale, _xxxbuyersAcc"
      },
      "removeStoreManager(address)": {
        "details": "removeStoreManager() A function to remove an old store manager ***Restricted to store owner (contract owner)***",
        "params": {
          "oldManagerAddress": "An address data type to identify the store manager to remove"
        },
        "return": "_xxxManagerID, _xxxManagerName, _xxxManagerAuth, _xxxManagerAddress"
      },
      "removeStoreProduct(uint256)": {
        "details": "removeStoreProduct() A function to remove an old store product ***Restricted to store manager (authorised by store owner)***",
        "params": {
          "oldProductID": "A uint data type to remove store product associated with store product ID"
        },
        "return": "_xxxProductID, _xxxProductName, _xxxTotalUnits, _xxxUnitPrice, _xxxforSale, _xxxbuyersAcc"
      },
      "withdrawStoreFunds()": {
        "details": "withdrawStoreFunds() A function to withdraw store funds. ***Restricted to store owner (contract owner)***",
        "return": "_amountWithdrawn"
      }
    }
  },
  "userdoc": {
    "methods": {}
  }
}