{
  "contractName": "Migrations",
  "abi": [
    {
      "constant": true,
      "inputs": [],
      "name": "last_completed_migration",
      "outputs": [
        {
          "name": "",
          "type": "uint256"
        }
      ],
      "payable": false,
      "stateMutability": "view",
      "type": "function"
    },
    {
      "constant": true,
      "inputs": [],
      "name": "owner",
      "outputs": [
        {
          "name": "",
          "type": "address"
        }
      ],
      "payable": false,
      "stateMutability": "view",
      "type": "function"
    },
    {
      "inputs": [],
      "payable": false,
      "stateMutability": "nonpayable",
      "type": "constructor"
    },
    {
      "constant": false,
      "inputs": [
        {
          "name": "completed",
          "type": "uint256"
        }
      ],
      "name": "setCompleted",
      "outputs": [],
      "payable": false,
      "stateMutability": "nonpayable",
      "type": "function"
    },
    {
      "constant": false,
      "inputs": [
        {
          "name": "new_address",
          "type": "address"
        }
      ],
      "name": "upgrade",
      "outputs": [],
      "payable": false,
      "stateMutability": "nonpayable",
      "type": "function"
    }
  ],
  "bytecode": "0x608060405234801561001057600080fd5b50336000806101000a81548173ffffffffffffffffffffffffffffffffffffffff021916908373ffffffffffffffffffffffffffffffffffffffff1602179055506102ae806100606000396000f3fe608060405234801561001057600080fd5b506004361061004c5760003560e01c80630900f01014610051578063445df0ac146100955780638da5cb5b146100b3578063fdacd576146100fd575b600080fd5b6100936004803603602081101561006757600080fd5b81019080803573ffffffffffffffffffffffffffffffffffffffff16906020019092919050505061012b565b005b61009d6101f7565b6040518082815260200191505060405180910390f35b6100bb6101fd565b604051808273ffffffffffffffffffffffffffffffffffffffff1673ffffffffffffffffffffffffffffffffffffffff16815260200191505060405180910390f35b6101296004803603602081101561011357600080fd5b8101908080359060200190929190505050610222565b005b6000809054906101000a900473ffffffffffffffffffffffffffffffffffffffff1673ffffffffffffffffffffffffffffffffffffffff163373ffffffffffffffffffffffffffffffffffffffff1614156101f45760008190508073ffffffffffffffffffffffffffffffffffffffff1663fdacd5766001546040518263ffffffff1660e01b815260040180828152602001915050600060405180830381600087803b1580156101da57600080fd5b505af11580156101ee573d6000803e3d6000fd5b50505050505b50565b60015481565b6000809054906101000a900473ffffffffffffffffffffffffffffffffffffffff1681565b6000809054906101000a900473ffffffffffffffffffffffffffffffffffffffff1673ffffffffffffffffffffffffffffffffffffffff163373ffffffffffffffffffffffffffffffffffffffff16141561027f57806001819055505b5056fea165627a7a72305820ddf417d505286dfe27f4de9b8db6cb8662fe35cd2d44ec3069c01079b0bf98c10029",
  "source": "/// @title Migrations: A contract to manage contract migrations\n/// @author John McCrae\n\n/// @dev This contract requires solidity compiler version 0.5 or higher\npragma solidity ^0.5.0;\n\n/// @dev Marketplace: A contract to manage contract migrations\ncontract Migrations {\n\n    /// @param owner A public address data type\n    address public owner;\n\n    /// @param last_completed_migration A public uint data type\n    uint public last_completed_migration;\n\n    /// @dev Declare constructor. Set owner to be the contract creator\n    constructor() public {\n      owner = msg.sender;\n    }\n\n    /// @dev restricted A modifier requiring the message sender address is equal to the owner address\n    modifier restricted() {\n      if (msg.sender == owner) _;\n    }\n\n    /// @dev setCompleted() A function to register the last completed migration as completed\n    /// @param completed A uint data type to register the last completed migration as completed\n    function setCompleted(uint completed) public restricted {\n      last_completed_migration = completed;\n    }\n\n    /// @dev upgrade() A function to manage the upgrade of contracts\n    /// @param new_address An address data type to manage the upgrade of contracts\n    function upgrade(address new_address) public restricted {\n      Migrations upgraded = Migrations(new_address);\n      upgraded.setCompleted(last_completed_migration);\n    }\n}\n\n",
  "sourcePath": "/home/john/git/Project/contracts/Migrations.sol",
  "compiler": {
    "name": "solc",
    "version": "0.5.8+commit.23d335f2.Emscripten.clang"
  },
  "schemaVersion": "3.0.11",
  "updatedAt": "2019-07-29T12:43:05.296Z",
  "devdoc": {
    "details": "Marketplace: A contract to manage contract migrations",
    "methods": {
      "constructor": {
        "details": "Declare constructor. Set owner to be the contract creator"
      },
      "setCompleted(uint256)": {
        "details": "setCompleted() A function to register the last completed migration as completed",
        "params": {
          "completed": "A uint data type to register the last completed migration as completed"
        }
      },
      "upgrade(address)": {
        "details": "upgrade() A function to manage the upgrade of contracts",
        "params": {
          "new_address": "An address data type to manage the upgrade of contracts"
        }
      }
    }
  },
  "userdoc": {
    "methods": {}
  }
}